:020000041000EA
:1000000000B5324B212058609868022188439860DF
:10001000D860186158612E4B002199600221596106
:100020000121F02299502B49196001219960352056
:1000300000F044F80222904214D00621196600F024
:1000400034F8196E01211966002018661A6600F04E
:100050002CF8196E196E196E052000F02FF8012189
:100060000842F9D1002199601B49196000215960AB
:100070001A491B48016001219960EB211966A021F2
:10008000196600F012F800219960164914480160C1
:100090000121996001BC002800D000471248134993
:1000A000086003C880F30888084703B5996A0420EC
:1000B0000142FBD001200142F8D103BD02B5186610
:1000C0001866FFF7F2FF186E186E02BD00000240BE
:1000D000000000180000070000035F00212200005C
:1000E000F4000018222000A00001001008ED00E03C
:1000F00000000000000000000000000074B24E7A12
:1001000000200420F7010010C3010010C5010010F9
:10011000C1010010C1010010C1010010C101001097
:10012000C1010010C1010010C1010010C701001081
:10013000C1010010C1010010C9010010CB01001065
:10014000CD010010CD010010CD010010CD01001037
:10015000CD010010CD010010CD010010CD01001027
:10016000CD010010CD010010CD010010CD01001017
:10017000CD010010CD010010CD010010CD01001007
:10018000CD010010CD010010CD010010CD010010F7
:10019000CD010010CD010010CD010010CD010010E7
:1001A000CD010010CD010010CD010010CD010010D7
:1001B000CD010010CD010010CD010010CD010010C7
:1001C00000BE00BE00BE00BE00BE00BEEFF3058054
:1001D000103800BEF2EB887170E7001094E7001051
:1001E0003802001090A31AE71E481F49086006C88D
:1001F00081F3088810471D480068002801D019487D
:10020000F3E70DA40ECC002902D000F012F8F9E7B4
:100210001749184A002000E001C19142FCD116495B
:100220008847164988471649884700BEFDE701C937
:1002300001C29A42FBD3704794E70010C00000202F
:10024000282D0020FC1301100000042000000420D1
:10025000FC13011000100420001004200000000016
:10026000704700000000000008ED00E0000000D032
:10027000282D0020F84102201D470010A90A001077
:10028000DD460010F8B5C04606480749091A8B102C
:10029000C90FC91810B5491003D0044B002B00D06A
:1002A000984710BD282D0020282D002000000000B8
:1002B000054B10B5002B03D00449054800E000BFF2
:1002C000FFF7E2FF10BDC04600000000983B002091
:1002D000E8AB0010F0B50B4E840023189B000025FE
:1002E0009D5123189B00B44663449D60DD608D687A
:1002F0001D614D685D600B6813432418A400A35171
:10030000F0BDC046000005400023036043608360E9
:1003100010334360014B83607047C046FFFF00000D
:1003200083001B189B000948844663441000002981
:100330000AD01004064A1968484010408022520131
:100340009446634418607047024AF4E70C00054085
:100350000000FFFFFFFF000010B503000A001F2888
:1003600007D841080720084001211940FFF7D8FFAE
:1003700010BD4108032008400830F5E710B505E03E
:10038000FA21890002F0DAFB054B186001F030FC1D
:100390000029F5D0FA229200002302F00DFCF3E7C9
:1003A0009440002010B588B000F08AFD3BE001AB1E
:1003B00000241C70FF225A709C70019800F063FDAD
:1003C000604B1C70604B02221A70604B1A68604BC5
:1003D0001A6030E002AB5F4A1188198092789A70F7
:1003E000029800F050FD574B01221A70574B1A68C3
:1003F000574B1A602BE003ABFF221A7000225A7091
:100400009A70039800F03FFD4E4B02221A704F4B3A
:100410001A684F4B1A6027E04F4B1B78012B3FD0D7
:100420000A2008F0BBFF4C4B1B78002BF4D1464B45
:100430001B78012BBBD0454B1B68454A12689B1AA1
:10044000464A934203D93F4B1B78002BC2D03F4B07
:100450001B683F4A12689B1AFA22D200934203D3C8
:10046000384B1B78012BC6D0384B1B68384A1268B2
:100470009B1A3A4A9342D3D9324B1B78022BCFD1E5
:1004800004AB00241C70FF225A709C70049800F08A
:10049000FAFC2C4B1C702D4B1A682D4B1A60BFE7D1
:1004A000294B1B78022B29D0284B1B68284A12683D
:1004B0009B1A2B4A934203D9224B1B78032B31D032
:1004C000224B1B68224A12689B1AFA22520093425E
:1004D000A6D31C4B1B78042BA2D107AB1D4A118855
:1004E000198092789A70079800F0CDFC154B032282
:1004F0001A70164B1A68164B1A6091E705AB154A2D
:100500001188198092789A70059800F0BCFC0D4B08
:1005100003221A700C4B023A1A700C4B1A680C4BDF
:100520001A60C1E706AB00221A705A709A700698DA
:1005300000F0A9FC034B04221A70044B1A68044B08
:100540001A60BDE7EF410220D20B0020944000204A
:1005500098400020CCC30010F34102208713000014
:10056000DB05000030B589B04E4D4F49280007F03B
:10057000ADFB03210E2001F015FF03210F2001F038
:1005800011FF002201210E2001F026FF002201218F
:100590000F2001F021FF02AC01953C2300930023C2
:1005A00040228021200000F0DBFA200000F0FDFA5C
:1005B000200000F060FB0021200000F09DFB2000E7
:1005C00000F059FB394B1A68394B1A6031E0374B50
:1005D0001B68374A12689B1AC72B2AD9354C2278D8
:1005E000354B9200D35802AD402201924032009226
:1005F00000220021280000F097FB280000F03BFBC0
:100600002A4B1A682A4B1A602278013203231340BE
:1006100023700EE0284B1B6902AC4022019240324D
:10062000009200220021200000F07EFB200000F05C
:1006300022FB224B1B78DBB2042BFAD89B00204A0A
:10064000D3589F461C4B5B6902AC4022019240325A
:10065000009200220021200000F066FB200000F044
:100660000AFBE6E7144B1B6902AC402201924032C0
:10067000009200220021200000F056FB200000F034
:10068000FAFAD6E70C4B1B6902AC402201924032C9
:10069000009200220021200000F046FB200000F024
:1006A000EAFAC6E7A8270020801A06009440002036
:1006B000A0400020D10B0020D40B0020EF410220ED
:1006C000E8AB001010B5072000F046FD464B0022B5
:1006D0001A70464B1A70464B0A321A701AE0424B97
:1006E0001B78002B1FD1414C23789A009B181801CE
:1006F000C01A80003F4BC018FE21890500F062FD42
:10070000207801300A2102F0F1F9C9B221702620C7
:1007100008F044FE384B1B78DBB2042B5ED89B00FC
:10072000364AD3589F4600F003FD2F4B00221A7023
:10073000D9E72D4B1B78012B0BD1262008F02EFE7C
:100740002F48FE21890500F03DFD262008F026FEF9
:10075000E0E700F0EDFC244B01221A70EDE7224B9C
:100760001B78022B1BD1224C23789A009B1818016E
:10077000C01A80001F4BC018FE21890500F022FD21
:1007800023780133DBB223702378DBB2152B02D937
:10079000174B0A221A70262008F000FEBAE700F074
:1007A000C7FC114B02221A70DDE70F4B1B78032B9D
:1007B00008D11348FE21890500F004FD262008F029
:1007C000EDFDA7E700F0B4FC074B03221A70F0E739
:1007D00000F0AEFC262008F0E1FD9BE700F0A8FC4D
:1007E000262008F0DBFD95E7ED410220EE410220D6
:1007F000D00B0020EC0B0020EF410220FCAB0010DE
:10080000B425002010B5052001F0DAFE062001F025
:10081000D7FED0231B0620229A6220329A62002241
:100820000121052001F0D8FD00220121062001F060
:10083000D3FD02E00A2008F0B1FD0C4B1B680C4A06
:1008400012689B1A962252009342F3D9D0231B06BA
:100850005B689B06EED4074A137859424B41DBB2E2
:100860001370024B1A68024B1A60E3E794400020B1
:10087000A4400020F341022010B50021002000F028
:1008800031FD70B584B00400042101F08BFD1F2CF4
:1008900025D8630807251D4001AE3000FFF734FD61
:1008A000052001F019FFC821C90202F047F902F042
:1008B0004CFDF421890502F0F7FC8321C90502F003
:1008C0000AFD02F069FD0290012231002800FFF7C5
:1008D00001FD00212000FFF73FFD04B070BD63085B
:1008E00003251D400835D7E710B580210901FFF722
:1008F00033FD10BD10B50021FFF72EFD10BD000027
:1009000010B51520FFF7BDFF614B1A68614B1A60E7
:10091000614B00221A706FE01520FFF7E5FF5C4B7A
:100920001A685C4B1A605C4B01221A7061E05A4BEA
:100930001B78002B06D1564B1B68564A12689B1A2F
:10094000632B11D8544B1B78002B52D0504B1B6893
:10095000504A12689B1A632B4BD91520FFF7CAFF28
:100960004D4B00221A7044E01520FFF7BDFF484BA5
:100970001A68484B1A60484B01221A7039E0464BFE
:100980001B78002B07D1424B1B68424A12689B1A06
:10099000424A934213D8404B1B78002B29D03C4B42
:1009A0001B683C4A12689B1AFA225200934220D3D9
:1009B0001520FFF79FFF384B00221A7019E0152011
:1009C000FFF792FF324B1A68324B1A60324B01220A
:1009D0001A700EE0304B1B78002B0AD01520FFF761
:1009E00089FF2D4B00221A7003E02D4B1B78012B41
:1009F0002FD00A2008F0D2FC294B1B78002BF4D111
:100A0000284B1B78DAB2012B91D0022AB7D0002AEA
:100A1000E0D1214B1B78002B09D11D4B1B681D4ACF
:100A200012689B1AFA229200934200D374E71A4B81
:100A30001B78002BDDD0164B1B68164A12689B1AD8
:100A4000632BD6D91520FFF755FF134B00221A70E0
:100A5000CFE7144B1B78032B0AD00F4B1B78002BCE
:100A6000C7D01520FFF746FF0B4B00221A70C0E7D6
:100A7000094B1B78002BBCD11520FFF735FF064B27
:100A800001221A70024B1A68024B1A60B1E7C04685
:100A9000944000209C400020EC410220DB05000037
:100AA000F3410220EF41022030B583B003F056FF3E
:100AB0001E4B01220421062001F01EFD80256D0041
:100AC0001B491C4800240194009400232A0008F0CC
:100AD0006DFA194919480194009400232A0008F07E
:100AE00065FA174917480194009400232A0008F07A
:100AF0005DFA154915480194009400232A0008F076
:100B000055FA134913480194009400232A0008F071
:100B10004DFA114911480194009400232A0008F06D
:100B200045FA08F087FA00F03DFCC046790800104D
:100B300010AC00107D03001024AC0010A5030010C1
:100B40003CAC00100109001050AC0010650500100D
:100B500064AC0010C506001078AC00100508001049
:100B600010B5040002AB1B7801704270D20882708D
:100B7000C370039B43605143481C2061012102F074
:100B80006BFCE060402303704033237510BD00B55B
:100B900083B0417502001432C1784068002300938D
:100BA000023307F0BDF803B000BD10B50400AE215C
:100BB000FFF7EDFF20212000FFF7E9FF01212000D2
:100BC000FFF7E5FF40212000FFF7E1FFA121200012
:100BD000FFF7DDFFA8212000FFF7D9FF3F2120000C
:100BE000FFF7D5FFC8212000FFF7D1FFD321200058
:100BF000FFF7CDFF00212000FFF7C9FFDA21200019
:100C0000FFF7C5FF12212000FFF7C1FFD52120000B
:100C1000FFF7BDFF80212000FFF7B9FFD921200099
:100C2000FFF7B5FFF1212000FFF7B1FFDB21200026
:100C3000FFF7ADFF30212000FFF7A9FF8121200041
:100C4000FFF7A5FFFF212000FFF7A1FFA42120004F
:100C5000FFF79DFFA6212000FFF799FF8D212000BF
:100C6000FFF795FF14212000FFF791FFAF2120002F
:100C7000FFF78DFF10BD10B582B004002121FFF7F2
:100C800086FF00212000FFF782FF21780139C9B2D9
:100C90002000FFF77CFF22212000FFF778FF0021D2
:100CA0002000FFF774FFA1780139C9B22000FFF7D7
:100CB0006EFFE2682369E17860680024009407F021
:100CC0002FF802B010BD10B5C900D40809190131C0
:100CD00007242240002B06D0C468635C01209040AA
:100CE0000343635410BDC068445C01239340DB435D
:100CF0005BB223404354F5E7F8B505000F0000262A
:100D00000CE03B00320021002800FFF7DCFF01343B
:100D1000E4B22878A042F4D80136F6B26B78B34238
:100D200001D90024F5E7F8BDF0B5DE4657464E463A
:100D30004546E0B58C46994609AB1B789B460AAB05
:100D40001E78D3089846F6089A1983789A4202DDED
:100D500042469B1ADEB200211DE00133DBB29E4207
:100D600017D942469F18FFB28278BA4211D95A4623
:100D70005A438A1892B24D46AD5C02787A43A21863
:100D800092B2013292B20769BA42E6D2C768BD5444
:100D9000E3E70131C9B2594507D26346CC18E4B242
:100DA0000378A34201D90023D9E7F0BCBB46B24681
:100DB000A946A046F0BD0000F0B50B4E84002318F4
:100DC0009B0000259D5123189B00B44663449D6001
:100DD000DD608D681D614D685D600B6813432418EC
:100DE000A400A351F0BDC0460000054000230360ED
:100DF0004360836010334360014B83607047C0469B
:100E0000FFFF000083001B189B00094884466344D1
:100E1000100000290AD01004064A19684840104002
:100E2000802252019446634418607047024AF4E7F6
:100E30000C0005400000FFFFFFFF000070B50D0033
:100E400014000303181AFF2101F050FE86B2280394
:100E5000401BFF2101F04AFE85B22003001BFF2149
:100E600001F044FE84B2320001210620FFF7CAFFE0
:100E70002A0001210520FFF7C5FF220000210620DE
:100E8000FFF7C0FF70BD00B583B001AB01909A7849
:100E900059781878FFF7D2FF03B000BD10B50022D3
:100EA00001210620FFF7AEFF002201210520FFF7F8
:100EB000A9FF002200210620FFF7A4FF10BD0000BB
:100EC00070B584B004210D2001F06CFA04210B20D0
:100ED00001F068FA04210C2001F064FA114B06229B
:100EE0001A60114D05232B60104E326001AC2000BA
:100EF000FFF77CFF102302930D4B03930122210087
:100F00000620FFF759FF286801222100FFF754FF50
:100F1000306801222100FFF74FFFFFF7BFFF04B049
:100F200070BDC04684400020804000207C400020EE
:100F3000FF0F000070B50600081CEC21890502F0C7
:100F4000B3F9051C02F028FA84B2002C12D020005C
:100F500002F0FBF9011C281C02F0A3F98721C90546
:100F600002F0B9F902F018FAC3B21B0224041C43C0
:100F7000346070BD0023F8E710B504001022002192
:100F800002F08AFA80235B022360F8235B0263602D
:100F90008023DB02A360C0231B03A360200010BDDD
:100FA00070B504000D00FFF7E7FFEA1C636809490C
:100FB0000B40ED012B43120313436360E268D20040
:100FC000D208802189050A43E260034A1340636026
:100FD000200070BD7F00FEFFFFFFFF9FCB0707D5FE
:100FE0008B005B180422121A9B181820C01A704735
:100FF0008A00521810181823181AF8E7F0B5CE46D0
:10100000474680B587B005000E0090461C00274B70
:10101000C3181B0DD9B20631C9B2200001F0C2F9C4
:1010200001239946009322003100280006F060FC5D
:1010300002AF41463800FFF7B3FF059B1C4A13403F
:10104000A402F822D2011440234305930499194BBA
:101050000B40194A13430493184B19400A43802349
:10106000DB0513430493052001F036FB02F06DF914
:10107000041C13490E9802F02EF9011C201C02F0EA
:1010800016F9011C3800FFF755FF3B0042463100BE
:10109000280006F087FC2A684B46B34013432B60B8
:1010A00007B0C0BCB946B046F0BDC0460000E0AFD6
:1010B000FF83FFFFFFFFF5C100000A10FFFFF501EE
:1010C0000000204170B5002528E0164B1868164B2B
:1010D0001C68164B6A005219D65C42682100103118
:1010E00001238B401342F8D1221D920016500F4A63
:1010F000690049195218517842681342FCD1221DE7
:1011000092001150094A69004919521891784268B1
:101110001342FCD10434A40021500135182DD4D938
:1011200070BDC046943B002088400020403B00201A
:1011300010B5002308E0074A5900C91854180020C8
:1011400060708854A0700133182BF4D9FFF7BAFFF0
:1011500010BDC046403B002070B582B00500134969
:10116000134E300006F0ACFB0400124B1E60002151
:10117000300006F089FB104B186001300DD00E4B8B
:1011800019680C4B18680D4B00932B002200FFF7D9
:1011900035FFFFF7CDFF02B070BD064B0848186061
:1011A000012106F071FB044B1860E8E7D0DB00106A
:1011B00000002050943B002088400020005043490C
:1011C00000003050F0B5D6464F464646C0B5814681
:1011D00088460021404602F0ADF800280AD1FE21E1
:1011E0008905404602F0ACF8002805D0FE239B0597
:1011F000984601E000239846002601E00136F6B249
:10120000042E39D80025042DF8D833019B1B9B00F0
:101210004B449A466C0063199B005246985802F062
:1012200099F8414602F057F802F0B6F8C7B26419CF
:10123000A4005444606802F08DF8414602F04BF877
:1012400002F0AAF8C3B29A46A06802F083F84146B9
:1012500002F041F802F0A0F8C4B231002800FFF714
:10126000BDFE094B420010181A1857705146C15460
:1012700094700135EDB2C6E7FFF724FFE0BCBA4633
:10128000B146A846F0BDC046403B002010B5010065
:1012900018231B8814221088984710BD10B5010030
:1012A00018231B8816221088984710BDF0B5C64633
:1012B00000B507000E0000250123984600E0013527
:1012C000B5420AD2AC003C192068FFF7DFFF20606E
:1012D0000028F4D100239846F1E7404680BCB84688
:1012E000F0BD000070B504000D000348FFF7CEFF0D
:1012F00003002900200098475542000070B5040003
:101300000D000648FFF7C2FF0300002C03DB01209D
:10131000A040290098470020FBE7C0465542000046
:1013200010B58023DB05186803051B0D0B4A93429B
:1013300007D10B4B034080229201934207D1000F4B
:1013400010BD084B084A0948222103F0CBF9084B8D
:10135000054A0648232103F0C5F9C04627090000C5
:1013600000F0FF0F90AC0010E0DB0010B4AC0010F8
:10137000FCAC00100FB400B583B0084803F0F2FADB
:10138000049B002B07D005A90191180003F0FAFA7D
:10139000034803F0E7FA012003F082F910AD0010D2
:1013A00020AD001010B50148FFF7E4FF24AD001098
:1013B000EFF3108072B6034B1B68002BFBD0BFF31A
:1013C0005F8F70472C0100D0BFF35F8F024B00226C
:1013D0001A6080F3108870472C0100D0F8B5060021
:1013E0000C001500FFF7E4FFE308F718F15C072293
:1013F0002240012393400B4205D1DBB20B433B70EB
:10140000FFF7E2FFF8BD21002800FFF7B3FFF0B5BA
:1014100083B00600019114001F00FFF7C9FF00E030
:101420000134BC420CD8E308F518F35C07212140D5
:1014300001228A401A42F3D1D2B21A432A7001E043
:1014400001246442FFF7C0FF002C02DB200003B040
:10145000F0BD019B002BF9D00898FFF78BFF00002F
:10146000054A1078431CDBB21370172B02D9130006
:1014700010221A707047C046E026002010B582B0D6
:101480000100054C054B00931F2318222000FFF795
:10149000BEFF02B010BDC046D036002034AD0010F3
:1014A000002307E0054A9A189200BFF35F8F0021DE
:1014B000116001331F2BF5D97047C046400000343E
:1014C00030B5846A151B0B1D9B001B581B1B9D42CE
:1014D00004D3046A01238B40234202D104318900E2
:1014E0000A5030BD0004084370470000F0B5DE46E6
:1014F00057464E464546E0B587B0EFF305830322D5
:101500001A409246AE4B9200D7583B78534507D1CC
:101510000123524693409946AA4B4A461A6025E158
:10152000A94BAA4AAA48922103F0DCF87A69730011
:101530009B19DB009046984443469C68DD68A548AB
:1015400000F04EFB001BA941002900DA16E1002D36
:1015500074DB43461B699B469F4B9B454FD008233A
:10156000F85E4346598889B2FFF7BCFF4346596984
:10157000D847029003910299039A0B00100013437D
:101580005CD013000A00002847DAA41A9D41009499
:1015900001954346009C019D9C60DD600021595EE1
:1015A000002900DAEAE078694B005B18DB00C31819
:1015B0009A68DB68A41A9D41002D00DADEE03981CB
:1015C0003D000835844604912A000597B346009EE5
:1015D000019F049B002B2ADB0023D45E63001B19B0
:1015E000DB0063449C68DD6830003900001BA941C2
:1015F00000291CDB1A000021595E0491E9E74346EB
:101600005B699B461B6958469847002816D05B4685
:101610001A685B6802920393ADE76E4800F0E0FA47
:10162000029B039C1B184C4100930194B1E7049961
:10163000059F5E464346198016809FE04346002280
:101640009B5E3B813A69EFF3108372B61168002903
:10165000FCD0BFF35F8F02217A5E41460A807E8014
:101660003A69BFF35F8F0021116083F3108885E032
:101670003969EFF3108372B60A68002AFCD0BFF311
:101680005F8FB88800B201225242BA803A69BFF334
:101690005F8F0021116083F310880500BC461CE0B9
:1016A000049300229A5E002A0EDB049B0021595EFF
:1016B0004B005B18DB0063449868D96834003D0038
:1016C000241A8D41002DEBDA04995D46009B9C465F
:1016D00044460D800023E55E2280002D12DB634628
:1016E00058696C006419E4000419A668E76861464B
:1016F000083108229A5EAB46049163460093A046E7
:101700008446D0E767463EE00023BB7139000831CC
:101710000823F85E0EE001246442E5179460D5606A
:1017200008243B5F834204D00E8008243B5F138073
:1017300038813000431C29D07C6943001B18DB0032
:10174000E218E65E53881BB2002BE4DB1100F0E7E1
:1017500022002B0051461F48FFF7B2FE1D4800F043
:101760003FFA241A8D41002D22DC1FD0194B4A4626
:101770005A630823FE5E002E00DBD7E6BB881BB24F
:10178000002B00DB74E7BB79002BBDD10823FA5E88
:10179000002A0DDB796953009B18DB00CB189C688D
:1017A000DD68631CD4D16B1CD8D0D1E7002CDDD010
:1017B00040BF07B0F0BCBB46B246A946A046F0BD4C
:1017C000B83B00203C70054050AD00100CDC001010
:1017D0007CAD001000400540ED14001070B5040011
:1017E0000D0011000126AE400662280000F0DCFA70
:1017F0000121280000F0A0FA024B9C4664442660B8
:1018000070BDC04638200000F8B5CE46474680B5CA
:101810000600894690461F00C160FFF721FE154B68
:101820009C4660448000306143463370BBB2738194
:10183000D022120612787270012252423281B28096
:101840009B187380002406E0621E736965002D19E1
:10185000ED005A530134BC42F6D3074B4246920086
:10186000D650064A41464846FFF7B8FFC0BCB946C5
:10187000B046F8BD40000034B83B0020ED14001025
:1018800010B5084B1A68EFF3108172B61368002B7D
:10189000FCD0BFF35F8F034806F036FC0020002128
:1018A00010BDC0467840002010B5064B1B69002BC8
:1018B00001D0044810BD044B044A0548652102F0DC
:1018C00011FFC046E4260020BCAD0010F4DB001080
:1018D0007CAD0010F8B504000569EFF3108072B616
:1018E00029680029FCD0BFF35F8F0221665E65691D
:1018F00071008919C9006D18002E02DB0027E95F0D
:1019000061802169BFF35F8F00270F6080F310882B
:10191000002E2CDB0699296107996961AA60EB60AA
:101920006B8801335B04590C002B00D101216980C5
:101930003000FFF7D7FD2169EFF3108372B60A6814
:10194000002AFCD0BFF35F8FA2882A80A68022697C
:10195000BFF35F8F0021116083F31088E368217863
:1019600001228A4003498C4663441A60F8BD012075
:101970004042FBE73C20000070B582B00600140036
:101980001D0008AB1B78002B07D100F031F92200B5
:101990002B00121A8B41002B0ADB079B0193069B3D
:1019A000009322002B003000FFF794FF02B070BDBF
:1019B0000020FBE7F0B5C64600B584B005008846B8
:1019C00016001F000AAB1C78FFF76EFF0294019708
:1019D00000962A004346FFF7CFFF04B080BCB8460C
:1019E000F0BD000030B504000A1443899A422EDA93
:1019F000406953009B18DB00C3182569EFF3108280
:101A000072B628680028FCD0BFF35F8F588885B273
:101A10000904090C884212D000202369BFF35F8FAC
:101A20000021196082F31088002811D0E368217822
:101A300001228A4007498C4663441A6008E006493F
:101A4000294389B259800123A3710120E5E70020D1
:101A500030BDC0463C2000000080FFFF10B50400F0
:101A6000FFF722FF2100FFF7BDFF10BD4078704750
:101A7000F0B5CE46474680B583B005000C00EFF3C5
:101A80000583002B15D03F4B5B6A8B4209D33D4A3F
:101A9000926A82420BD28B4201D0012002E00020E8
:101AA00000E0002003B0C0BCB946B046F0BD012044
:101AB000F8E7FFF7F9FEC3689946037898462E00C9
:101AC0002700484600F08CF802000B00B61A9F4130
:101AD000434604339B004A469B581B1A0022BA42D5
:101AE0000FDC0CD020BF274B5B6A9C422DD8254AC7
:101AF000926AAA422BD29C4225D00120D2E7B3425F
:101B0000F0D9214A0023009328002100FFF752FF5B
:101B100000281EDD1B4B5B6A9C4205D8194A926A5D
:101B2000AA4202D29C4200D120BFFFF797FF154B7B
:101B30005B6A9C4221D8134A926AAA421FD29C42F5
:101B400019D00120AEE70020ACE70020AAE7012071
:101B5000A8E70C4B5B6A9C4209D80A4A926AAA42DF
:101B600007D29C4201D001209CE700209AE7002088
:101B700098E7012096E7002094E7002092E70120F3
:101B800090E7C046004005408118001000487047AB
:101B90000040054010B50B4B1B69002B04D00A48D0
:101BA0000A2100F09FFB10BDFFF7F0FF04000321A6
:101BB00000F00CF80348102303222100FFF724FE55
:101BC000EDE7C046E42600207840002010B5024A28
:101BD0000248FFF703FC10BDE0AD0010D436002032
:101BE0000200436A906A1900536A9942FAD1704719
:101BF00010B50248FFF7F4FF10BDC0460040054095
:101C0000074B9B68103080001950BFF35F8FBFF304
:101C10005F8F044B0021196082F310887047C04623
:101C200000ED00E0240100D00048704700E400E02F
:101C300010B5FFF7F9FF002302E0034A04C00133A7
:101C4000072BFAD910BDC0468080808010B503886C
:101C5000DA0A1C2A05D15B055B1502335B00C0184C
:101C600010BD034B034A16210348FF3102F03AFD31
:101C700004AE001070DC00101CAE001010B5091A84
:101C80000B1F0A4A88180A4A904208D8C90706D486
:101C90005B105B055B0D0748184380B210BD064B17
:101CA000064A08210648FF3102F01CFDFC0700002F
:101CB000FE0F000000E0FFFF60AE001064DC0010CB
:101CC0001CAE001010B5091A04394A08090B08D1D6
:101CD0004905490D064B0B430380064B13434380D4
:101CE00010BD054B054A10210548FF3102F0FAFCF2
:101CF00000F0FFFF00F8FFFF90AE001040DC001086
:101D00001CAE001001238340034A10681840431E94
:101D10009841C0B27047C04600E100E0002A05D0FB
:101D2000044BC0225200995019607047014A802329
:101D3000D150FAE700E100E010B50A001F2303408C
:101D4000012199404009FFF7E9FF10BD01238340BD
:101D5000014A13607047C04600E200E0024B9B68F6
:101D600010308000C058704700ED00E010B5FFF75C
:101D7000F5FF002806D0044B984201D0012010BD89
:101D80000020FCE70020FAE7CD01001010B5FFF7B6
:101D9000E5FF044BC31A00202F229A424041C0B2F3
:101DA00010BDC046FC26002070B504000D00EFF306
:101DB000108672B60C4B1B68002BFBD0BFF35F8FF5
:101DC0002000FFF7CBFF094B984201D0A84205D174
:101DD000320029002000FFF713FF70BD044B054AB5
:101DE0000548E72102F07EFC240100D0CD0100105F
:101DF000A0AE001098DC00101CAE0010F0B5DE465E
:101E000057464E464546E0B589B0814601911500DA
:101E1000EFF3108B72B66F4B1B68002BFBD0BFF338
:101E20005F8F6D4B00269E57002E40DB7400A41977
:101E3000A4006A4824180622A256674B1A70684B01
:101E40009A684B4610339B00D35898461B1A2F2B89
:101E50003BD9644B984531D105AF634B3B80634917
:101E600073009A46981980005C4B984640440230B3
:101E7000FFF704FF78805E4BBB80FF23BB71FD71D1
:101E8000019B0793330053449B00434407CF07C390
:101E900001231C43A0465A4641464846FFF7B0FE80
:101EA00009B0F0BCBB46B246A946A046F0BD514BB6
:101EB000514A74215148FF3102F014FC504B4E4AF4
:101EC000BD214E48490002F00DFC012342469A43D1
:101ED0009246101A0C2100F031FE00290FD1534612
:101EE0000027DA79AA4212D90621595600290DDBBA
:101EF0004A005218920039491F008B18F1E7414BF4
:101F00003D4A8C213D48FF3102F0ECFB1F00002FC1
:101F10002ED005AB3C4A1A80813A5A800623FB56E4
:101F20000293002B17DA394805AB9A469880029A3B
:101F30009A71DD71019A0792381D2100FFF79EFE0C
:101F4000B880BE71254B7200921992009B185246C0
:101F500013CA13C39FE7381DFFF778FE0100700016
:101F6000801980001D4BC0180430FFF787FEDBE7A7
:101F700005AF1D4B3B801D49730002939B199B00CD
:101F8000164A90461A0042440392901CFFF776FED0
:101F90007880039A101D5146FFF770FEB8801C4BE5
:101FA00052464146521A524153431B0DBB71FD71BB
:101FB000019A0792029B9B199B00434407CF07C3DA
:101FC000114B52461380813B538001231C43A04692
:101FD00061E7C046240100D0F0410220FC26002029
:101FE00000ED00E0CD01001000A1FFFF2C27002034
:101FF00001BDFFFFD8AE001080DC00101CAE001049
:1020000000AF001028AF00100148000001BD000023
:10201000AAAA0000F0B5CE46474680B583B00600B8
:102020000D00EFF3108872B64F4B1B68002BFBD0EE
:10203000BFF35F8F4D4B9A6834001034A300D7581C
:102040004B4B9F4207D0AF4200D18AE00197494BEA
:10205000FB1A2F2B09D9424639003000FFF7D0FD7B
:1020600003B0C0BCB946B046F0BD3000FFF74AFE31
:10207000814600213000FFF75FFEBFF35F8FEFF373
:102080000581002901D08C4211D10123019C9C4380
:102090000020A3689D4212D00622A256002A0DDB22
:1020A00053009B189B00334A2000D418F1E7324BB1
:1020B000324AFA213248FF3102F014FB20009D42DF
:1020C00049D106256557002D2BDB2A4B6A00521992
:1020D00092009B189A68A260DA79E2719B795BB2F0
:1020E000A371002B0FDA2748A080224B6A005219F7
:1020F00092009B18244A1178997115704946300056
:10210000FFF71AFEA7E7680040198000194BC018B6
:102110000430FFF79BFD0100231D1800FFF7AEFD03
:10212000E2E7002912D100280ED0FF238371174B5C
:10213000838015490B78A3710E4A154BA41A64418C
:1021400063431B0D0B70D9E7094FF2E71149201DBE
:10215000FFF7B8FDD2E7104B084A09480F4902F0D3
:10216000C1FA034F77E7C046240100D000ED00E03C
:10217000CD010010FC260020ACAF001050DC001098
:102180001CAE001001BD0000F041022001BDFFFFA8
:10219000AAAA000036270020E0AF00103B02000092
:1021A00070B505000C00FFF73FFDAB089B00C2189F
:1021B000116803232B40DB00FF20984081439C40A3
:1021C0002143116070BD0000F8B5012202432D4B80
:1021D000D31A2F2B28D8EFF30583002B2BD0EFF346
:1021E000108472B6284909680029FBD0BFF35F8FBD
:1021F000244D26490600761B76417143090D4DB2E8
:10220000234989689B00C95891421AD000210329AB
:1022100031D81C4B4A00521892009B189B795BB234
:10222000AB421ED00131F2E71A4B1B4A9D211B48DD
:10223000890002F057FA1A4B174A1848194902F058
:1022400051FA134A92681849D150184B1A78827182
:102250001D70BFF35F8F0C4B00221A6084F310884F
:10226000F8BD084B4A005618B6009E19FF27B771F3
:102270000F4AB280E9E70F4B074AA22107488900BD
:1022800002F030FAFC260020240100D0AAAA0000A7
:1022900000ED00E0E8AF001024DC00101CAE0010E0
:1022A00010B0001077020000CD010010F0410220B4
:1022B00001BDFFFF1CB0001010B582B00100074C3B
:1022C000074B0093052300222000FFF7A0F8002809
:1022D00001DB1F23181A02B010BDC046F5410220D1
:1022E00024B00010024B9C46614489000160704795
:1022F0004000003410B50400FFF7B2F801002000E0
:10230000FFF7F0FF01235B426360BFF35F8F10BDF7
:1023100010B50400FFF7A4F801002000FFF7E2FF6A
:1023200001235B42636000232372BFF35F8F10BD04
:1023300010B50D4C09E00D4B0D4A0E481A2102F064
:10234000D1F92000FFF7D6FF08340B4B9C4209D28D
:102350002368002BF5D0012BEDD12000FFF7D8FF2B
:102360000C34F2E710BDC046182D002040B000101C
:10237000D8DC001060B00010282D0020034B9C46D4
:10238000614489000160BFF35F8F704740000034F3
:1023900010B504000120FFF771F801002000FFF7DD
:1023A000EDFF10BD10B58300084A9A18146840224A
:1023B000544080322240064CA44663441A60C00058
:1023C000044B9C466044416010BDC04604C00140BF
:1023D00004D001400040014080000C4B9C4660440A
:1023E00000290ED00823002A0DD0042213430268CE
:1023F00053400C22134080225201944660440360F3
:1024000070470023EFE70022F0E7C04604C0014018
:1024100070B50400D0231B061D680D4BAA00D358CD
:10242000002B0AD0002803D0094BAD00EC5070BD42
:1024300008490D20FFF7EEFDF6E70028F7D0044B22
:10244000AD00E850034900220D20FFF7D7FCEEE76E
:10245000C036002021250010072303409B00C00840
:1024600099403C308000014BC15070470040014012
:10247000F8B507000D0016001C00FFF7EDFFFB0884
:102480009B00E4180720384080008540002E05D0CE
:1024900080239B019C4664442560F8BDC0239B01BA
:1024A0009C4664442560F8E770B506000D00141ED4
:1024B0000BD1D0231B061B68002B11D0094B220027
:1024C00029003000FFF7D4FF70BD0D20FFF74EFC50
:1024D0000028EED1044B054A0548BD2102F002F95F
:1024E000044BECE73041014068B10010ECDC001017
:1024F00020B100100041014070B505000E0014002D
:102500001800FFF785FF220031002800FFF7CCFFFD
:10251000002C00D170BD01210D20FFF70DFCF9E763
:10252000F0B5D6464F464646C0B5D0231B061F68B9
:102530001F4BBA00D3589846002F03D01D4B994625
:10254000002626E01C4B9946FAE7EB40DB0714D542
:1025500024090135002C1BD033000833AB4217D9B6
:102560000F231A00224092462342F1D0134BBA00A7
:10257000D358202DE9D40023E8E751462800FFF77F
:102580006BFF4346002BE3D051462800C047DFE7EE
:1025900008361D2E06D8F30808339B004A469C587F
:1025A0003500D7E7E0BCBA46B146A846F0BDC04604
:1025B000C03600203041014000410140643E00200F
:1025C00010B501238340D022120693629361052146
:1025D000FFF7E8FE10BD0000F8B5D646474680B5C7
:1025E00006000D001700984644002418A400294B4B
:1025F0009C4664446368089A934200D26260331F29
:10260000DBB29A46012B2ED980221201C0239B01F6
:10261000E3181A60204BB200D158002907D058693E
:1026200000F08CFA013043001B18033BFDD27F0100
:1026300023685F40E0233B4080225201A2181360D0
:102640005346012B1AD980239B01E31880221201E3
:102650001A60089B6360104BB6004246F250C0BC43
:10266000BA46B046F8BD012DCED10322C0239B014E
:10267000E3181A60A368DB07FCD5D8E72168694036
:1026800003230B401360A3680122AA401A42FAD028
:10269000D9E7C04600800040DC360020F0B583B0AA
:1026A00005000E0017001800089900F047FA030013
:1026B000089A140200943A0031002800FFF78CFFBA
:1026C00003B0F0BD10B582B0802464000094FFF721
:1026D00083FF02B010BD0000014B8000C05870475E
:1026E000DC360020F0B5C64600B504000E00170029
:1026F0001D00374800F022FA8046364BFA18364B58
:102700009A4239D80100380000F018FA0200103A55
:1027100098235B009A4235D86B1E062B38D8069B4F
:10272000013B062B34D83F09474537D32D04069B80
:102730001B031D432368002B36DB284B9C4244D0EF
:102740000C2201239340264A1360264A1360264A2E
:102750001268190091430A1EF9D12660A060234B2C
:10276000E31821321A602268002AFCDAE5600822A8
:102770001A6080BCB846F0BD1D4B1E4A1E48112190
:1027800001F0B0FF1D4B1B4A1B48192101F0AAFFA5
:102790001B4B184A18481C2101F0A4FF194B154A7D
:1027A0001548232101F09EFF22683F231340B342C6
:1027B000C3D1A3681B051B0D8342BED1E368EE2283
:1027C000D2021340AB42B8D1D3E70D22B9E7C046DD
:1027D000001BB70080E84BD380F8A93200C002404C
:1027E00000E0004000F0004008C00040043000005D
:1027F00094B1001004DD0010E4B1001028B2001004
:1028000044B2001090B20010024B1A68024B5A609A
:102810007047C0468C3B00200080054010B5184B27
:102820008022D2051A60174B174A1A6000290AD075
:10283000164BE022D2041A60002809D1134B8022E3
:1028400012061A6010BD0E4BE022D2041A60F3E7A4
:1028500043011B1A9B001A18D2000D490A60181870
:102860000001086080235B04984201D3094A0A6092
:10287000FFF7CAFF054B8022D2051A60E2E7C04687
:1028800000B0054008200140FCFF010000A0054009
:102890008C3B0020FFFFFF0010B5030010000C4A26
:1028A0008024E4051460002B0DD001221343094A53
:1028B000094CD461094C5C4014625162936200215E
:1028C000FFF7ACFF10BD034B0022DA61F7E7C0460B
:1028D00000B0054000800540D3C007B02D3FF84F41
:1028E00080239B000B43014AD36270470080054060
:1028F000074BAA2212011A608D225200DA60054BA2
:10290000054A1A60024B5B68002BFBDA7047C04631
:10291000004002400060024000B0FA0010B5040020
:1029200001E008CC9847024B9C42FAD310BDC04648
:10293000DCAB00107047000010B50248FFF7EEFF57
:1029400010BDC046A0AB0010054B064A1A60064BEE
:10295000064A1A60064B1A68044B9343FAD1704733
:1029600000E00040BFCDFBFE00F00040FE7F3C00D9
:1029700008C00040044BDB6C002B03D1034B8022CA
:10298000D2021A607047C046000011504C2011500E
:10299000044B054A1A60054B1B68DB43DB01FAD187
:1029A0007047C04600F00040FFFFFF0108C0004034
:1029B000034B40229A675A671A67DA667047C04627
:1029C00000F0014010B5FEF76BFD10BD70B5044D71
:1029D000A968044CC022200000F064FDAC6070BD0A
:1029E00000ED00E00000002070B50420FFF774FE49
:1029F000064900F0A3F805000024002C00DD70BD9E
:102A0000E0B22900FFF76CFF0134F6E740420F0007
:102A100030B583B0274B00229A67FFF769FF264B3A
:102A200001221A60234B5B6C012BFBD1234B032249
:102A30001A60204B9B6B012BFBD1013300930433B5
:102A40001F4A01211F48FFF74DFE052300931E4A30
:102A500001211E48FFF746FE1D4B002202210420E3
:102A6000FFF730FE1B4D2B00002201210520FFF750
:102A700029FE194C2300002200210720FFF722FE27
:102A80002300002200210820FFF71CFE8023DB002A
:102A900000932300002200210920FFF7FFFD2B00F7
:102AA000002200210620FFF70DFEFFF79DFF03B077
:102AB00030BDC046008000403CB0004030B0004017
:102AC000002F685900800240008C864700C00240F9
:102AD000001BB70040597307006CDC020148042159
:102AE000014B184750270020AD120010124A936F77
:102AF0009B0815D29066D166002905D0FFE7FFE755
:102B0000FFE7516F106F704704B580210906C217A7
:102B10005140002800D0C84307F0FAFF002104BD4F
:102B2000F0B5146E556E576F166FFFF7E3FF14661E
:102B3000556657671667F0BD000000D0114A936FC5
:102B40009B0813D210665166002905D0FFE7FFE706
:102B5000FFE7516F106F704704B5002801D00020C7
:102B6000C04307F0D5FF002104BDC046F0B5146E88
:102B7000556E576F166FFFF7E5FF1466556657677A
:102B80001667F0BD000000D094464A4A926F920842
:102B9000624601D228E0C046F0B5464E346E756EEE
:102BA000776F366F00F020F89446424A14665566F7
:102BB000576716676246F0BD94463E4A926F920888
:102BC000624601D254E0C046F0B53A4E346E756E9E
:102BD000776F366F00F04CF89446364A14665566A7
:102BE000576716676246F0BD002B24DB11D0002921
:102BF0003EDA00B5C943404200D1013100F038F857
:102C0000C943404200D10131DB43524200D101337C
:102C100000BD002AEBD1002801D1002905D00020F9
:102C2000C90FC90701D1C043410800B507F058FFDB
:102C30000022002300BD00B500290ADBDB4352421D
:102C400000D1013300F014F8C943404200D10131F2
:102C500000BDC943404200D10131DB43524200D1A3
:102C6000013300F005F8DB43524200D1013300BDCF
:102C7000002923D1002B18D1002A0CD0BC460D4FBF
:102C800038667A6600210023FFE7FFE7FFE77A6FE7
:102C9000386F67467047002801D00748010000B52B
:102CA00007F01EFF0022002300BD02000B000020E1
:102CB00000217047000000D0FFFFFFFF002B00D075
:102CC000BFE0130C28D1002AE7D080B4114F396639
:102CD0007A66FFE7FFE730B4040C7B6F396F1B04A3
:102CE00023433B667A66FFE7FFE7FFE7C04684B20F
:102CF0007B6F3D6F1B0423433B667A66FFE7FFE76C
:102D0000C04600232C042D0C7A6F386F00196941DE
:102D1000B0BC7047000000D0F0B594460025140EFA
:102D200001D112020835140F01D112010435940F9C
:102D300001D192000235D40F01D152000135D40BDC
:102D40000134254F7C66254C3C660E0C93B2FFE7A0
:102D5000FFE7FFE73C6F6643360C7703BE467343DD
:102D6000DF0B5B04C01AB941130C7343DB18C91A9B
:102D7000CE086643360CB64493B273431F0F1B0153
:102D8000C01AB941130C73431F0B1B05C01AB9417C
:102D9000860D8F023E436643360C092D24DB520A12
:102DA0007243801A7703460A6643360C16235B1B70
:102DB000DE40DF40BF1964466643821B704604351F
:102DC00006330100D940A840C01900D30131A24206
:102DD00006D20023F0BD0000000000D0FFFFFFFF7F
:102DE000121B0130F3D3F1E709277F1BFE40644635
:102DF000A2B27243801A00D20139220C7243130C22
:102E00001204821A99410B007046043513370100F1
:102E1000F940A840801900D30131002B02D1A24211
:102E20000AD2F0BD013000D30131121BFAD2013BAE
:102E3000F8D1A24200D2F0BD013000D30131121B03
:102E4000F7E7F0B51C0C00D080E00CB400251C0A9C
:102E500004D11B02160E3343120208351C0B04D199
:102E60001B01160F3343120104359C0B04D19B0048
:102E7000960F334392000235DC0B02D192185B416E
:102E800001351C00971864410134464F7C66464C5E
:102E90003C660E0CFFE7FFE7FFE7C0463C6F66436A
:102EA000360C7703BE4697B27743C01B00D2013978
:102EB000C01B00D201399FB27743C91BC91B170C35
:102EC00077437E04FF0B801BB941CE086643360C66
:102ED0000C2D33DBB644120B1F053A431B0B97B284
:102EE0007743C01B00D201399FB27743C91B170C2F
:102EF00077433E043F0C801BB941860D8F023E4351
:102F0000664329277F1BFE400C3D7746AF40BF1923
:102F100030BCA2B2ABB272437343801A9941220C07
:102F20007243130C1204801A994102000B000137FE
:102F3000001BA941F9D2781E0021F0BD0C277F1B90
:102F4000FE4077467F0BAF40FF19E0E700245D1C91
:102F500007D0144F7D663966FFE7FFE7FFE7FFE71D
:102F60003C6F95B29EB265436643401BB141150C60
:102F70001E0C6543664336042F0C3E432D04401B54
:102F8000B141994204D202000B0020000021F0BDA3
:102F900001D19042F7D3801A994101349942F2D37A
:102FA000F6E70000000000D0FFFFFFFF484041406F
:102FB000484018B4134B5B68019308BD18B4114B1B
:102FC0001B68019308BD94460F4A926F920805D280
:102FD000624618B40B4BDB68019308BD0A4AF0B592
:102FE000146E556E576F166F6246FFF7F2FF064A72
:102FF0001466556657671667F0BD18B4014B9B6899
:10300000019308BD743E0020000000D0FFB5504081
:103010004240504059404B40594000E0FFB5154FE9
:103020004C00640D03D0BC4204D10C0314D8002022
:10303000090D09055C00640D03D0BC4204D11C03DA
:103040000AD800221B0D1B0501264B4009D44B401A
:1030500003D58B4200D18242FFBD9942FCD1904200
:10306000FFBD0B43DB1803431343F5D0C943491895
:10307000FFBD0000FF07000000B5FFF7CFFF804154
:1030800000BDC04600B5FFF7C9FF01D9002000BD53
:10309000012000BD00B5FFF7B9FF01D9002000BD38
:1030A000012000BD00B5FFF7B1FF804100BD012048
:1030B00040054A00121804D85A00121801D80020FE
:1030C00070470120704700000021002805D170479B
:1030D000C1174840401AFAD0C90713B5064B1B6800
:1030E00098470CBC441CA2401005120B0349091B55
:1030F00009051943114310BD743F00201F0400004F
:1031000010B54C00620D8023D218DB00D21A5B058B
:103110007E2A10DD9E3A13DACC17090349081943B9
:103120005242D140640001341532202A05DAD040E1
:103130000843604310BD002010BD0846604310BD29
:10314000C80FC018013810BD18B4024B5B6A019358
:1031500008BD0000743E002010B50148FEF70AF9D2
:10316000ACB2001070B513231C78012C12D0012CC6
:1031700012DC214B214A93642148FEF787F8214B4A
:10318000186070BD20491D4A9800815001331F2BE3
:10319000F8D9ECE70023FAE71C48FEF77FF80500B2
:1031A0001B48FEF77BF8023803789B007F2B09DD74
:1031B00012488022290000F075F9022C08D0022C58
:1031C000DADCD6E7134B144A1448332101F08AFAAB
:1031D000134B1A88B5231B029A4209D1114B1A8846
:1031E000114B9A4204D1114B1A88114B9A42E6D0E6
:1031F0000020FEF7BFF8C04635320010743E0020B4
:103200004C330000743F002059310010534400003B
:1032100053460000C4B2001010DD001008B30010C7
:1032200054380000D8380000494600009C3800009F
:103230005946000007B56046002800D100BE01884D
:103240000A0A0230DF2AFAD1C9B2820804D30288FE
:1032500040880004104300E00068024A5050039088
:1032600007BD0000743E002051434343C9188C46FB
:10327000110C83B24B4310B4040C614392B280B280
:10328000504362431C041B0C001910BC5941130429
:10329000120CC01851416144704700004840414041
:1032A00048400E4B5B6818470C4B1B6818470C4A8C
:1032B000936F9B0802D2094BDB681847F0B5146E78
:1032C000556E576F166FFFF7F6FF054A1466556681
:1032D00057671667F0BD014B9B681847783F002081
:1032E000000000D007B548404140484001E0C046DA
:1032F00007B54200120E03D0FF2A03D1420218D8AC
:10330000C00DC0054A00120E03D0FF2A03D14A02A5
:103310000FD8C90DC9050122414005D4414001D54E
:10332000814207BD884207BD0143491801D0C0430F
:10333000001807BD00B5FFF7DBFF804100BDC046A8
:1033400000B5FFF7CFFF804100BD491A002807D123
:1033500008467047C10FC90700D54042002817D062
:10336000F44603B40B4B1B68984706BC81409E385B
:103370004042803107D20B0607D04900490AC005F8
:103380001043084360470130F8E7490A8902F5E72E
:1033900070470000743F0020014B5B6A1847000033
:1033A000783F002010B50148FDF7E4FF54B4001049
:1033B00070B513231E781848FDF770FF0500012E25
:1033C00011D0012E09DDAB1E1B789B007F2B1DDD6C
:1033D00012488022290000F065F81148FDF756FFD9
:1033E000104B186070BD0D485422290000F05AF8A7
:1033F000002300E001331F2BE3D8084A9C00A258A9
:10340000002AF7D10849054AA150F3E7074B084ABB
:103410000848422101F066F953460000783F002039
:103420004C330000743F0020A533001060B300103F
:1034300024DD001094B3001010B5002804D040180B
:10344000034B984200D810BD0248FDF793FFC046D9
:1034500000000420E8B30010F8B506000C00094F86
:10346000380007F08DFB2100300006F027FE050034
:10347000380007F02DFB210071432800FFF7DCFF27
:103480002800F8BD182D002001480421014B1847E1
:1034900060270020AD120010014B1B681847000088
:1034A00060270020014B5B68184700006027002060
:1034B000704710B5002802D00B684968984710BDC6
:1034C0000100002007E083001B185B00501C08600F
:1034D0001078C01830380A681378303BDBB2092BFB
:1034E000F1D97047F0B5DE4657464E464546E0B541
:1034F00083B093461F000C9B9A460D9C0E9B9946E9
:103500000F9B9B0717D0B8460F00060022E0551C02
:103510004B4641462020B84701342A00B442F6D336
:103520003D004F465C46019B9B46B1464646B84629
:1035300037002E000EE00192A34688464E46B9465B
:103540000700EBE7013C551C5346185D4346390024
:10355000B0472A00002CF5D135003E0047460F9BAE
:103560009B0711D4100003B0F0BCBB46B246A9467D
:10357000A046F0BD541C4B4641462020B8472200CF
:10358000531BB342F6D3EDE7B0464E46B9462F0083
:103590005D46F5E7F0B5CE46474680B585B0944622
:1035A00098460C9D0D9C0EAB1B789946109A119B6A
:1035B000129EB7071CD4002B0CD0F7070AD54F4634
:1035C000002F02D10C37374204D0013B02E03027F4
:1035D0002F550134944201D21F2CF8D9F70707D593
:1035E0009C4205D21F2C03D830272F550134F5E714
:1035F000F70612D5770505D4002C03D0944221D0CC
:103600009C421FD00F9A102A2FD00F9A022A36D030
:103610001F2C0AD830222A5501341F2C05D84A46BF
:10362000002A32D02D222A550134039602930194A8
:10363000009543466246FFF755FF05B0C0BCB9464A
:10364000B046F0BD621E012C17D00F9F102F0BD07B
:1036500014000F9A102AD8D1B206D6D51F2CD4D870
:1036600058222A550134D3E7023CB206F1D41F2C6C
:10367000EFD878222A550134CAE71400C2E71F2C7C
:10368000D3D860322A550134C2E7720703D52B2202
:103690002A550134C9E73207C7D520222A550134FB
:1036A000C3E7F0B5DE4657464E464546E0B593B013
:1036B00081468A46089209931CAB10CB1B789B4627
:1036C0001E9D219B9846002C03D1102342469A430D
:1036D00090468023DB0046461E4042461A4218D0E0
:1036E000002C22D0002614E0424692061BD5412130
:1036F000C918C9B20A39C9B2771C0AAB9955290051
:103700002000FFF71BFAAC4210D31F2F0ED83E004B
:10371000040029002000FFF711FACBB2092BE3D8EF
:103720003033D9B2E8E76121E2E727004346069348
:10373000209B05931F9B049303955B46029301977F
:103740000AAB0093099B089A51464846FFF722FFAF
:1037500013B0F0BCBB46B246A946A046F0BDF0B5DA
:10376000DE4657464E464546E0B597B00A900B9167
:103770000C929A46209B9946219F22AA13789B4639
:10378000249B0993259C289B98464A463A4302D19C
:103790001032934398468022D20045461540434656
:1037A00013420AD04A463A4341D000252E005346E0
:1037B0000D934D46099B9A4621E02E0053460D93EA
:1037C0004D46099B9A461AE04246920623D541226D
:1037D000D218D2B20A3AD2B2731C99460EAB9A559D
:1037E0005246230028003900FFF7E6F9BC4220D8F2
:1037F00013D04B461F2B16D84E4605000F005246DD
:10380000230028003900FFF7D7F9D3B2092BDBD802
:103810003033DAB2E0E76122DAE7AA45E9D94E4669
:103820000D9B9A4608E04E460D9B9A4604E0002602
:1038300002E04E460D9B9A4643460693279B05930E
:10384000269B0493099B03935B46029301960EAB60
:10385000009353460C9A0B990A98FFF79BFE17B0FA
:10386000F0BCBB46B246A946A046F0BDF0B5DE4668
:1038700057464E464546E0B591B0804689460C9283
:103880009A461A9C1B9D22002B0020002900FFF75E
:103890000EFC002800D0F2E001225242D54B20005D
:1038A0002900FFF7FFFB002800D0E8E00122524288
:1038B000D14B20002900FFF7DFFB002800D0DEE01D
:1038C0000022002320002900FFF7D6FB002800D0AB
:1038D000EAE0069407958023DB001E9A1A400D92B9
:1038E0001E9A1A4201D106231C93069807990200DA
:1038F0000B000892099303000A00024300D1DFE0A5
:10390000080D4005400DBD4EB4466044079E32038D
:10391000120B1E00BA4B13431F00FFF7D9FBB94A25
:10392000B94BFFF76AFBB94AB94BFFF747FB089061
:1039300009910022B74B30003900FFF73AFBB64A35
:10394000B64BFFF75AFB02000B0008980999FFF7E6
:1039500035FBFFF7D5FB8346FFF7BAFB06000F00E8
:10396000AF4AB04BFFF749FB0022AF4BFFF726FBF6
:10397000FFF7C6FB0890AD4AAD4B30003900FFF7AA
:103980003CFB06000F000898FFF7A2FBA94AAA4BD0
:10399000FFF733FB02000B0030003900FFF709FB93
:1039A00006000F0002000B00FFF727FB0A900B91A7
:1039B000089BA24A94466344002100220891099280
:1039C0001B0509930023089332003B0030003900A7
:1039D000FFF7F4FA0E900F9132003B000020802197
:1039E000C905FFF7E6FA06000F000022944B0A987B
:1039F0000B99FFF7E8FA0022924BFFF7DFFA02007B
:103A00000B000A980B99FFF7DEFA00228E4BFFF7A6
:103A1000D5FA02000B000A980B99FFF7D4FA0200BE
:103A20000B0030003900FFF7C9FA02000B000E98B6
:103A30000F99FFF7C8FA0022714BFFF7BFFA089AF7
:103A4000099BFFF7DAFA06000F0008960997069A15
:103A5000079BFFF727FB00280BD001235B429C4606
:103A6000E3440022774B30003900FFF7ACFA0890AE
:103A700009915B466333C62B45D8042623E01E9B81
:103A800004931D9B03931C9B029300940195534642
:103A90000C9A4946404600F0FBF811B0F0BCBB461A
:103AA000B246A946A046F0BD002100220691079229
:103AB000069480231B069C46AC44634607930AE7A2
:103AC00000239B4604261E9B1B0528D5089A099BAC
:103AD000190011430FD05D4A5D4B06980799FFF717
:103AE000D9FA00287AD000225A4B06980799FFF796
:103AF000C3FA002872D01C9B5B4506DD5A469B1A10
:103B0000013B1C9303E00526DDE700231C93802383
:103B1000DB001E9A1A431E92002600239B461D9B23
:103B20009E4265D29F1B02231E9A1A400A921E9A39
:103B3000134202D0002E00D000275B46002B07D096
:103B4000089A099B06980799FFF73DFA0690079196
:103B50000022002320002900FFF78EFA002800D061
:103B60007CE03D4B1E9A1340049303971C9B0293E9
:103B7000069B079C0093019453460C9A4946404685
:103B800000F086F8002E00D187E71E9B9B0671D5BA
:103B90004525441C5346020049462800C0475A4662
:103BA000D317D2185A4005230593013E04960023EB
:103BB00003930A3302935B46DB0F01930092534653
:103BC000220049464046FFF76CFD0A9B002B00D1BE
:103BD00063E7020047460C9E1D9D53E01C9B002B93
:103BE0009DD00D9B002B9AD01C9B013B1C9396E70C
:103BF000002798E7FFFFEF7FFFFFEFFF01FCFFFFCC
:103C00000000F03FFB799F501344D33FB3C8608B53
:103C1000288AC63F0000F83F61436F63A787D23F01
:103C200071A379094F930A400000E03F1655B5BBD8
:103C3000B16B0240EF39FAFE422EE63FFF0300006F
:103C400000002C4000002440000018402D431CEBD5
:103C5000E2361A3F80842E41FFF7FFFF069C079D46
:103C60002200290080200006844661440B00069251
:103C7000079376E765258CE7541C53464946202078
:103C8000B8472200931BAB42F6D3100005E7C046AD
:103C9000F0B5DE4657464E464546E0B595B006902F
:103CA000079193469946209F1E9A1F9B100019006A
:103CB000FFF7FDF9002831D101225242BC4B1E987A
:103CC0001F99FFF7D9F9002837D101225242B94B89
:103CD0001E981F99FFF7E6F900283DD10022B64B48
:103CE0001E981F99FFF7DEF900284AD10022B34B36
:103CF0001E981F99FFF7C0F9002842D10022002327
:103D00001E981F99FFF7B8F900284AD1002398465A
:103D1000229B5B0500D4B0E0002452E0229B039379
:103D2000219B029303230193A54B00934B465A46D4
:103D300007990698FFF7D6FB08E1229B0393219B86
:103D40000293042301939F4B00934B465A460799D5
:103D50000698FFF7C7FBF9E0229B5B070ED59A4B4D
:103D600004222299039121990291019200934B46DA
:103D70005A4607990698FFF7B5FBE7E0934B0322F5
:103D8000EFE7229B0493219B039302971E9B1F9CAA
:103D9000009301944B465A4607990698FFF766FD33
:103DA000D4E01E9A1F9B00200021FFF702F91E900D
:103DB0001F9101239846ABE70CAB30221A55013F07
:103DC00001341F2C01D8092FF6D81E981F99FFF730
:103DD00097F90500FFF77CF902000B001E981F9968
:103DE000FFF7E7F87A4BFA009B181A685B680A92AB
:103DF0000B93FFF702F908900991FFF7A5F9060068
:103E0000FFF762F902000B0008980999FFF7D1F853
:103E10000890099100226F4BFFF744F900282ED03B
:103E200001363000FFF750F902000B000A980B9999
:103E3000FFF728F9002801D001350026002F2CD1EA
:103E40002800FFF745F902000B001E981F99FFF7A5
:103E5000B0F806000F0000225E4BFFF70DF90028B6
:103E600046D100225B4B30003900FFF71BF90028D8
:103E70003ED1EB073CD501353AE006274CE700225E
:103E8000544B08980999FFF7F7F80028D6D1002E6F
:103E900001D0F307D2D50136D0E7AA461F2C11D89E
:103EA000013F0A213000FEF749FE651C30310CABA2
:103EB00019550A213000FEF741FE092E0ED90600E1
:103EC0002C00EBE755461F2C0CD87B1E002F09D089
:103ED0000CAA302111551F000134F4E72B00554680
:103EE0001C00F0E71F2C03D80CAB2E221A5501340E
:103EF0001F2C10D80A212800FEF7F8FD661C30316F
:103F00000CAB19550A212800FEF7F0FD051E01D063
:103F10003400EDE734000323229A1340012B1CD018
:103F20001F2C06D84346002B32D00CAB2D221A553D
:103F30000134229B0393219B029301940CAB0093C9
:103F40004B465A4607990698FFF7CCFA15B0F0BCD5
:103F5000BB46B246A946A046F0BD219B002B13D01C
:103F60004346002B02D10C3313420FD0219B013B5F
:103F70002193190003E00CAB30221A5501348C4216
:103F8000CED21F2CF7D9CBE72199F8E72199F6E794
:103F9000229B5B0704D50CAB2B221A550134C8E7D2
:103FA000229B1B07C5D50CAB20221A550134C0E754
:103FB000FFFFEFFFFFFFEF7F65CDCD4165CDCDC1A9
:103FC0003CB4001040B4001030B4001038B40010FD
:103FD00038DF00100000E03FF0B5DE4657464E46A1
:103FE0004546E0B593B007008A46934611930029F1
:103FF00000D12CE3002508E06C1C5B462A005146EA
:10400000B847119B013311932500119B18780028A4
:1040100000D11EE32528EFD10133119300231800AE
:1040200020E00123184301321192012418E00223F9
:10403000184301321192012412E004231843013283
:10404000119201240CE0082318430132119201243B
:1040500006E01023184301321192012400E00024ED
:10406000002C09D0119A1378203BD9B21029F6D828
:104070008B00C449CB589F468146119B1A78130088
:10408000303BDBB2092B10D92A2A13D00B94119B99
:104090001A782E2A20D0119A1378683BD9B21229A7
:1040A00065D88B00B849CB589F4611A8FFF708FA8E
:1040B0000B90ECE71C9B1A1D1C921B68002B04DB69
:1040C0000B93119B01331193E1E70222010011438D
:1040D00089465B420B93F4E78022D20049461143A4
:1040E00089465A1C11925A781300303BDBB2092BD7
:1040F0000BD92A2ACFD11C9B1A1D1C921C68002C9C
:1041000008DB119B01331193C5E711A8FFF7D8F91C
:104110000400C0E70024F4E780235B0049460B431A
:10412000511C119151786C2901D099461FE0C02390
:104130009B004946194389460232119217E08023B9
:1041400049460B43511C11915178682901D0994679
:104150000DE0C0234946194389460232119206E018
:1041600080235B0049461943894601321192119B15
:10417000187867281CD8252800D25EE20300253B6A
:10418000DAB2422A00D958E29300804AD3589F46B7
:1041900080239B0049461943894601321192E6E784
:1041A00080235B0049461943894601321192DEE7BC
:1041B000782800D941E2692800D23EE20200693A3B
:1041C000D2B201239340724A134210D11A0600D58D
:1041D0000CE25B0500D430E21C9B1A1D1C921E6889
:1041E000002C00D0BAE101225242330096E16F2840
:1041F00042D005D8582841D0622803D1022606E0D3
:1042000078283DD010234A469A4391460A265828DA
:1042100038D0692805D0642803D00C224B4693433C
:1042200099464B465A0502D501229343994669287F
:104230002DD064282BD04B469A0500D5AAE0DA058C
:1042400000D5C2E05A0600D4D3E01C9A111D1C917F
:104250001168FF220A404B4605930B9B049303947D
:1042600002960023019300925B462A0051463800D3
:10427000FFF717FA05002AE00826C8E71026C6E768
:104280001026C4E720224B4613439946C1E74B460C
:104290009A0520D4DA0551D45A0666D51C9A111D08
:1042A0001C911168FF220A40D017111841404B465B
:1042B00005930B9B049303940296D20F01920091F5
:1042C0005B462A0051463800FFF7EBF90500119BC9
:1042D0000133119399E61C9A073207218A43110092
:1042E00008311C91116853689C46DB170C930D93A1
:1042F0000C9A0D9B100048400E900D9B61464B4060
:104300000F930E980F990C9A0D9B801A99410E905D
:104310000F914B4608930B9B07930694049600233A
:1043200005936346DA0F0292009001915B462A00E2
:1043300051463800FFF713FA0500C8E71C9A111D13
:104340001C911268D0171118414005930B9B0493E0
:1043500003940296D20F019200915B462A005146C7
:104360003800FFF79EF90500B1E71A0605D51C9A3B
:10437000111D1C910023D25E96E71C9A111D1C9101
:10438000126891E798DD0010DCDD001028DE0010D7
:10439000419000001C9A073207218A43110008311E
:1043A0001C9108930B9B0793069404960023059396
:1043B000029353681268009201935B462A005146AB
:1043C0003800FFF7CCF9050081E71C9A111D1C91FC
:1043D00005930B9B049303940296002301931368A7
:1043E00000935B462A0051463800FFF75AF9050052
:1043F0006DE71A0606D51C9A111D1C91126812044D
:10440000120C28E71C9A111D1C91126823E74628FC
:104410001AD01C9B0733072293431A0008321C92C0
:104420004A4604920B9A039202941A685B680092BF
:1044300001935B462A0051463800FFF729FC05002E
:10444000119B01331193E0E520234A461A4391461C
:10445000DFE7672801D0472804D180231B014A46A3
:104460001A439146452801D0472803D120234A46C4
:104470001A4391461C9B0733072293431A000832C4
:104480001C924A4604920B9A039202941A685B6843
:10449000009201935B462A0051463800FFF7E6F987
:1044A0000500119B01331193AFE502234E461E40D8
:1044B0004A4613421ED001241C9B1A1D1C926A1CE2
:1044C000904618785B462A005146B847002E14D112
:1044D000119B01331193454697E5551C5B465146A8
:1044E0002020B84723002A005C1C0B999942F4D87D
:1044F0001500E1E701232A00F6E7424606E0561CD4
:104500005B4651462020B8472C003200651C0B9BAF
:10451000A342F4D89046DBE701330A00197800295A
:1045200002D0511E002AF7D19B1B8022D20049469F
:10453000114088464946114202D0A34200D92300C7
:10454000022249461140109149460A4208D02A00E9
:10455000250099463B004746984626E0220044E65F
:10456000A1462A005146B2460E0006E0551C5B46A5
:1045700031002020B84723002A005C1C0B99994287
:10458000F4D8150022004C46330056469A46914610
:104590002A0025003B004746984606E01D000136EC
:1045A000541C5B465146C04722003078002804D096
:1045B000002FF4D06B1E002DF0D115004B4647465E
:1045C000109A002A03D1119B013311931DE50B9E14
:1045D0002A0006E0551C5B4651462020B8472300C0
:1045E0002A005C1C9E42F5D81500ECE721234A46C0
:1045F0001A4313001C9A111D1C911268059308237D
:1046000004930394083302930023019300925B46C2
:104610002A0051463800FFF744F80500119B01338A
:104620001193F2E46C1C5B462A0051462520B847E2
:10463000119B013311932500E7E46C1C5B462A00B3
:104640005146B847119B013311932500DDE40A4F11
:10465000D0E45D450DD35B465A1E5B4651460020B3
:10466000B847280013B0F0BCBB46B246A946A046E6
:10467000F0BD2A00F1E7C046B134001010B584B097
:104680000C0002A902904C6001240448009313001E
:104690006242FFF7A1FC04B010BDC046B334001065
:1046A00000BEFDE703000A4A1268002A08D0084A43
:1046B0001068C318074A9A4206D3054A1360704728
:1046C000034A05491160F2E701204042F7E7C0467E
:1046D0003C37002000000420F841022010B5FFF70D
:1046E000DFFF000030B583B00D001900002A0BD0A9
:1046F000074B084C019200932B000200200000F0B1
:1047000061F90120FFF7CCFF034B1A00F1E7C04627
:1047100048B4001058B4001054B4001010B5EFF3B2
:104720000583002B00D000BEFEF706F9034C01E024
:1047300008CC9847024B9C42FAD310BDDCAB00106A
:10474000E8AB001010B50300080011001B68984783
:1047500010BD0000F8B507000D001600437D002BCA
:1047600002D0002400200CE00368110028009847C4
:104770002DE03B7D10E03B68154802219847601C06
:104780000134B44214DA002CF3DD2B19013B1B7801
:104790000D3B5A425341DBB22A5D0A2AF0D1002B6D
:1047A000EED1A042E7DA3B68211A28189847E2E7E1
:1047B000B04203DA3B68311A28189847002E06DD0C
:1047C000AD19013D2B780D3B5A4253413B75F8BD65
:1047D00088DF001070B505000368002B16D00C4B65
:1047E0001C6805E0290004C92000FFF7B3FF246915
:1047F000002C09D02368002BF9D0064B1B68002B36
:10480000F0D0A342F3D1EDE700232B6070BDC0468A
:104810002C3700203837002070B505000C000B68DD
:10482000802B05D023685A1C2260E418257170BDC6
:104830000800FFF7CFFFF5E710B5FDF7D9F9074AF4
:10484000002312184B41002B03DB054806F078F9D2
:1048500010BD01225242034BF7E7C04640420F0011
:10486000202D0020FFFFFF7F10B5024806F030F931
:1048700010BDC046202D0020F0B5CE46474680B57D
:1048800083B006000D0090461C00FFF7D5FF81465F
:104890006B1C05D0002C08D0184F194B1C6807E082
:1048A000300005F08BFF0500F4E7164FF5E72469AB
:1048B000002C17D02368002BF9D0134B1B68002B5A
:1048C00001D0A342F3D12A0031002000B84743466B
:1048D000002BECD06B46D91D0A230B70012220005F
:1048E000B847E4E74B46002B05D1280003B0C0BC15
:1048F000B946B046F0BDFFF7B7FFF6E755470010E1
:104900002C37002045470010383700200A4A13682A
:1049100002E01A0010321B69002B09D01368834291
:10492000F7D1002907D1036913600023036102E076
:10493000002900D0106070472C37002010B5064BBE
:104940001C6800E02469002C04D06368002BF9D0B7
:104950009847F7E710BDC0462C37002010B500F08F
:10496000C7F910BD70B5050005F028FF040001234C
:10497000012201002800FFF77FFFFFF7DFFF200083
:1049800070BD0000F0B5A3B004000E00FFF754FFA7
:10499000050001AF002301930948330022003900CC
:1049A000FFF76CFE04003800FFF714FFFFF7C6FFA7
:1049B000002D02D1200023B0F0BDFFF755FFF9E72D
:1049C000194800100FB400B583B004A901C90191C2
:1049D000FFF7D8FF03B008BC04B0184770470000C9
:1049E000014B00221A707047F14102204B79FF2BD6
:1049F0000CD18B79002B0BD1CB79012B0AD1082A52
:104A00000AD98A78054B1A70092000E00020704707
:104A10000020FCE70020FAE70020F8E7F14102203F
:104A20000120704710B5012927D1117953791B0254
:104A30000B43134909788B4201D000201EE05378C4
:104A4000012B03D0022B11D0002017E09178D378EE
:104A50001B021943DB0506D5480A8A05D20F7F23BE
:104A60001940FCF74BFC01204042F6E7642200218C
:104A70000020FDF711FF012000E0012010BDC0461D
:104A8000F14102200048704754E0001010B51400B6
:104A9000012910D15378012B0FD1127963791B02B0
:104AA0001343072B01D0002006E0054A9F33210065
:104AB00001F058FB00E0012010BD0020FCE7C046DB
:104AC000ACDF001001230370004870478CDF00103A
:104AD00010B50A784B781B0213438A7812041A43E4
:104AE000CB781B0613439622D200934200D010BD10
:104AF0000120002211004042FCF700FC024B18602C
:104B0000024B19607047C046C8360020CC360020E2
:104B100010B5FDF76DF80E4A002312184B41002B1B
:104B200012DB0C4806F00CF800280CD00120002104
:104B3000404201F0E3F9002001F07CFC0028F5D1AF
:104B4000044805F0C5FF10BD01225242024BE8E7C0
:104B500040420F008C400020FFFFFF7F10B5024B4A
:104B60001878FDF7F3F810BDF24102200268EFF368
:104B7000108172B61368002BFCD0BFF35F8F4160C9
:104B80007047000070B5144B1B68002B1AD0124CF4
:104B90002000FFF7EBFF114B00221A7021686368B9
:104BA000BFF35F8F0A6083F31088002400250C4B4D
:104BB0001878FDF7A7F8002808D100240025200068
:104BC000290070BDFA24A4000025F0E7044B1878F2
:104BD000FDF7BCF8F3E7C046B03B0020F4410220EB
:104BE000F2410220F0B585B0060014001D000CABA8
:104BF0001F78FCF7FDFF22002B0012184B41002B01
:104C000009DB02970B9901910A9900913000FCF79A
:104C1000B3FE05B0F0BD01225242014BF1E7C046A0
:104C2000FFFFFF7FF0B5C64600B584B0050088469B
:104C300016001F000AAB1C78FCF736FE02940197A1
:104C400000962A004346FFF7CDFF04B080BCB8466B
:104C5000F0BD000010B582B01F48002105F060FFD4
:104C6000002818D11D4B1B68002B12D01B4C2000B4
:104C7000FFF77CFF1A4A1378DBB20121117021681B
:104C80006268BFF35F8F0020086082F31088002BFA
:104C900017D002B010BD01200021404201F02EF9D2
:104CA000002001F09FFB04000B4805F011FF002CD1
:104CB000EFD00C4B1B68002BEBD00B4A10689847C9
:104CC000E7E70A4A013300930023FA20800000211D
:104CD000FFF7A8FFDDE7C0468C400020B03B002076
:104CE000F4410220C8360020CC360020854B00104D
:104CF00010B582B0D0231B061C68FCF7D5FDFCF76D
:104D0000B5FEA04230D1274B1B780021002002F0D5
:104D100053F8254B1B68002B2CD00120FDF7CCFA53
:104D2000224C20702249FF231840FDF73DF82078DF
:104D30000121FDF701F80520FDF728F8041E1DD01C
:104D40000120FCF79BFB01001A4B1800FDF716FB36
:104D5000194900220520FDF751F818480121FFF7F5
:104D6000D5FD200002B010BD154B164A1648C121D2
:104D7000FFF7B8FC0C48FDF7BDFACEE70D48082256
:104D80000021FEF789FB114A012300930023FA203A
:104D900080000021FFF746FFC043C40F0028E0DA7F
:104DA000DBE7C04690E700108C400020F241022073
:104DB000554C0010B03B00205D4B001070270020C8
:104DC000E0AF001084E0001088B40010854B0010A4
:104DD00010B5002001F0EAFA10BD000070B5050022
:104DE0000C00FFF7F5FF002834D0002001F0FAFA9C
:104DF000002832D0FCF7FCFE1B4A002312184B415E
:104E0000002B19DB194805F09BFE002828D0FFF77E
:104E1000DFFF002804D0002001F0E4FA00280FD1C1
:104E200001200021404201F069F8032464420F4848
:104E300005F04EFE200070BD012252420C4BE1E70E
:104E400022002900002001F0D9FA041EEFD103242A
:104E50006442ECE703246442ECE703246442E9E79C
:104E600003246442E6E7C04640420F008C40002025
:104E7000FFFFFF7FF0B5C64600B580460C00FCF78B
:104E8000B7FE314A002312184B41002B07DB2F4895
:104E900005F056FE002806D180BCB846F0BD0122C0
:104EA00052422B4BF3E7FFF793FF002849D1294BE0
:104EB0000020002118605960244805F009FEEBE746
:104EC00001200021404201F019F8002001F0B2FA5F
:104ED000FFF77EFF0028EFD0002001F027FB00281D
:104EE00020D0A542E8DA661B002001F01FFB02007B
:104EF000864200DC3200002AE2D0434659190020E5
:104F000001F0F0FA060001200021404200F0F6FF17
:104F1000002001F08FFAAD19FCF76AFE0D4B186006
:104F20005960DEE7FCF764FE0A4B1E685F680A4AB8
:104F3000002392197B419942BED8D2D19042D0D958
:104F4000BAE70025CDE7C04640420F008C40002064
:104F5000FFFFFF7FA82E002020A107000048704718
:104F600000E1001000487047ACE0001010B50400EC
:104F7000154B1B78002B0ED0002C11D1134B144A6B
:104F80005A80012301335B009BB21048C02292007B
:104F90001343038010BD0C48112100F025F8EBE706
:104FA000052C0ED80B4BA400E4580023122BE9D893
:104FB000E15C0029E6D00133044A58008152DBB29B
:104FC000F4E70020E6E7C046A840022004370020AE
:104FD0000904000094E0001010B5024800F030F819
:104FE00010BDC0466C3E002010B5002901D0002342
:104FF00008E00F4B0F4A10483531FFF773FB37328B
:10500000C25401334A1E9A420ED90F2B0CD85A08AB
:105010000A4CA45C01229A43920014410F222240C0
:10502000092AECDC3032EBE7C0180023037010BD16
:1050300014B5001014E100101CB500106C3E0020E7
:1050400070B588B0040004AD0D2200212800FEF7E1
:1050500023FA0D2200216846FEF71EFA4B232B701F
:105060000D226946280005F02BFD002304E05A1D9F
:1050700069468A5CE2540133072BF8DD08B070BD45
:1050800070B582B07F230340C509274C5E007619B6
:105090007601A419A0706842684160700020E07039
:1050A0002183E276012D1ED0D800204A9446604428
:1050B0001D4A590049194901521890601A4A59006D
:1050C000491949015218926800211160002B10D132
:1050D000154A5B005B195B01D31800225A60144A21
:1050E000DA6002B070BDD800124A94466044A060F5
:1050F000E4E7012D0BD0591EC9000F4A94466144C4
:10510000094A5B005B195B01D2185160E9E7591E3F
:10511000C9000A4A94466144034A5B005B195B017B
:10512000D2185160DDE7C04640370020840010509F
:1051300000011050800010500C001050080010505A
:1051400010B5038B3F333F229343C27E022A08D01F
:1051500008490A68C260D3180B60074A934202D814
:1051600010BD5B00F4E7054B054A06485221FFF7E6
:10517000B9FAC046903B0020FF0F105000B7001056
:1051800074E1001044B70010F8B57F250540C6094A
:105190006B009B195B010E4C1C19FFF771FF002D72
:1051A00000D1F8BD0A4B6D00AD196D015D19298B59
:1051B0002000FFF7C5FFEB7E9B06E968054A4A40E1
:1051C00013438022120613436A681360E9E7C0465E
:1051D000403700200000105010B504007F20204010
:1051E000E409400000194001024BC01800F026F904
:1051F00010BDC0464037002010B5002804D1012161
:105200000520FCF799FD10BD034B044A9821044882
:10521000FF31FFF767FAC046B4B7001064E1001031
:1052200044B7001010B5002805D1002200218020CD
:10523000FFF7D2FF10BD034B034AA2210348FF3101
:10524000FFF750FAB4B7001054E1001044B7001053
:10525000024B80225202DA647047C046002011508F
:1052600070B5041E27D100F0C7F8164D0C23AB67AC
:105270001549FF220520FCF7C1FD144840220021FA
:10528000FEF70AF9002240210020FFF77DFF0022EF
:1052900040218020FFF778FF05F02AFC01232B64D2
:1052A00080239B05EB649023094AEA502000FFF716
:1052B000CFFF012070BD074B074A64210748FF312B
:1052C000FFF710FA000011507D0400204037002045
:1052D00010D00100B4B7001088E1001044B70010EE
:1052E000044B1970002904D0034A902380218902BD
:1052F000D1507047E9410220002011500B785B0625
:1053000002D14B78052B00D070478A78014B1A6088
:10531000FAE7C0460000115010B5CA789207920F04
:10532000012A0AD088780B7949790902194349057D
:10533000490DFFF729FF012010BD0020FCE710B543
:1053400005F0D6FB10BD000010B5040008001100E8
:105350001A00002C03D1FFF73FFF012010BD034BC3
:10536000034A812103488900FFF7BCF9B4B7001054
:1053700044E1001044B7001010B57F231800084026
:105380000B4205D1CB09012B0ED00222074B9A66A6
:10539000C909400040184001054BC0188022120185
:1053A000002105F0E5FB10BD0122EFE700201150C0
:1053B0004037002010B57F22100008400A4200D17B
:1053C00010BDC909400040184001044BC01800231B
:1053D000C3700022024905F0CBFBF1E74037002003
:1053E000FFF7FFFF04E00A780270013101301A0074
:1053F000531E002AF7D1704710B580235B040A4A78
:1054000013600A4A13600A4B1A6880235B049343B3
:10541000F9D18022520100210648FEF73DF8064BE3
:1054200009225A6710BDC04600E0004000F000406D
:1054300008C00040000010500000115070B504007A
:105440000D001600837E002B17D1A6820023E38275
:105450000133A3762561200005F09AFB002804D0D3
:105460000C4A902380218902D150200005F048FB8E
:1054700000280AD00123237770BD81780648FFF702
:10548000A1FA200005F06CFBDFE7200005F060FBCF
:10549000F2E7C04600201150A4B8001070B5050016
:1054A000002408E09B1A5B01164A9B18DB68280061
:1054B00098470134E4B2144B1A782300511CA142DE
:1054C0000DDBA242EED9114B1B6862019B18002B29
:1054D000ECD10F490F48104AFFF774FA10E00F4C57
:1054E000542200212000FDF7D7FF201D1022FF21AC
:1054F000FDF7D2FF200014302022FF21FDF7CCFF62
:1055000070BDC04604E30010E841022020300020B6
:10551000D0E20010DCB8001025020000D0310020DD
:105520000268EFF3108172B61368002BFCD0BFF352
:105530005F8F4160704710B5FFF7B0FF00F05EFE6F
:1055400010BD70B505000C001600486900F060FE43
:105550006369320001212800984770BDF0B5DE462E
:1055600057464E464546E0B583B082460139C8B23B
:10557000FFF7F8FC002803D043789946022B0CD0A3
:1055800056495748574AFFF71DFA002003B0F0BCB0
:10559000BB46B246A946A046F0BDC5796C110122B2
:1055A000514B1440240119781026B143214319703E
:1055B000AD112A405201C9B22024A1430A431A70F6
:1055C000060009368278C3781B02134383469B4446
:1055D0004B460193370066E0FB7899463A78BF184E
:1055E00068E03E493E48414AFFF7ECF90020CDE72C
:1055F000009AD31A5B013E4E9E193369220039008E
:1056000050469847082801D9844216D20135EDB298
:10561000384B1B7800955A1CAA423EDBAB42E7D9B7
:10562000354B1B686E019E19002EE6D12B492C4884
:10563000324AFFF7C7F90020A8E73400009E009027
:105640004B46012B11D00020494681421BD9BB7823
:105650001B18DBB2244AD2181279FF2A0CD1224A35
:10566000D3181D710130C0B2EFE72169244A91427D
:10567000E9D1019B9946E6E718491948214AFFF705
:10568000A1F9002082E720482B00009C220039006D
:1056900001F068FCA446674400E02E00154B1B781F
:1056A00001339E420FDC5F4515D27B780B2B93D0E4
:1056B000012399467A78042A93D15B46DA1B93B288
:1056C00000251C00A4E7852204490548D200FFF705
:1056D00079F900205AE7012058E7C046A4E20010FB
:1056E000DCB80010D6030000D0310020F103000028
:1056F00004E30010E841022020300020FA030000FB
:10570000A966001019040000E431002070477047BA
:10571000002070470020704770B505000C00CB7862
:1057200088780F2B53D89A002E498A589746FFF74E
:1057300015FC021E05D012232100280000F012FDE6
:1057400046E0294929482A4AFFF73CF900203FE072
:10575000FFF798F9021E3CD08178C3781B020B43F7
:105760002100280000F0FEFC32E0022B0CD0FFF7F5
:10577000D1FF021E2FD09178D3781B020B4321005A
:10578000280000F0EFFC23E0FFF7ECFB021EF2D153
:1057900015491648174AFFF715F9002018E0237934
:1057A000617909021943FFF7E1FB021E15D0037866
:1057B0002100280000F0D6FC0AE0FFF7A9FF021E36
:1057C0000DD003782100280000F0CCFC00E0002080
:1057D00070BD0020FCE70020FAE70020F8E7002079
:1057E000F6E7C046A4E100108CE20010DCB800101F
:1057F0003A0400006104000070477047704770472A
:10580000024B5878431E9841C0B27047D0310020F7
:10581000024B18784007C00F7047C046D0310020B7
:10582000034B1878FF38431E9841C0B27047C046FA
:10583000A4270020F8B505000F00FFF7F1FF061EB2
:1058400048D1002F21D02E4854220021FDF724FEFC
:105850002C4B00221A702C4C2000FCF74BFD2B4BDC
:105860001C602B4C2000FCF793FD143C200001F041
:1058700013FF284B1C60284B002B04D02748FFF750
:1058800021F9274B1860002410E0E9222549264819
:105890005200FFF797F81DE09B1A5B01234A9B1803
:1058A0005B68002B10D098470134E4B21B4B1A7888
:1058B0002300511CA1420FDBA242EDD9184B1B68FB
:1058C00062019B18002BEBD1F822164916485200B2
:1058D000FFF778F83000F8BD154B1D70390028002F
:1058E000FFF7BEFC061E03D02800FFF785FCF1E79A
:1058F000FC220C490C485200FFF764F8EAE7C04666
:10590000D0310020EA410220C8310020243200209A
:105910009C27002028320020C54A0010E8410220C0
:1059200020300020F4E20010DCB8001004E3001086
:10593000A427002070B50D00104B1E788B787022C4
:105940001A420DD10E4B9978280001F0B5FA041EC9
:105950000DD029003000FFF7DFFC0400200070BDEF
:1059600008490948094AFFF72DF80024F6E70549D8
:105970000548074AFFF726F8F0E7C046A4270020AD
:10598000D03100205CE20010DCB800100B050000F4
:105990000C050000F0B5D6464F464646C0B58146D8
:1059A0000C0017009846089B9A46002517E01849F6
:1059B0001848194AFFF706F800263000E0BCBA463E
:1059C000B146A846F0BD9D2211491248D200FEF70B
:1059D000F9FFF2E7099A13702378E4180135AF4212
:1059E00014DD6378052BE2D1E1788907890F414501
:1059F000DDD121004846FFF79DFF061EE3D0A378C6
:105A0000DA09012AE6D052461370E5E70126D4E709
:105A10006CE20010DCB80010E704000010B57F2035
:105A20000840C909400040183030044BC018043009
:105A3000034B196801F0FCF910BDC046D0310020BD
:105A40002432002010B57F200840C90940004018CA
:105A50003030044BC0180430034B196801F010FAC1
:105A600010BDC046D031002024320020F0B5C6461B
:105A700000B582B001931A4800787F250D40CE0909
:105A8000184C6F00E419A41930342479E4071DD4AC
:105A9000144C6F00E419A419303423790127BC4653
:105AA00067463B432371019BFFF74EFC002813D14F
:105AB0000C4B6D005B199B1930331A7901218A4315
:105AC0001A711A7903318A431A7105E006490748A9
:105AD000074AFEF777FF002002B080BCB846F0BD51
